:020000040800F2
:1000000060050020D1000008791D0008771B00085A
:1000100000000000000000000000000000000000E0
:100020000000000000000000000000007D1D00082E
:1000300000000000000000007B1D00087F1D00087C
:10004000E3000008E3000008E3000008E300000804
:10005000E300000829020008E3000008E3000008AC
:10006000E3000008E3000008E3000008E3000008E4
:10007000E3000008E3000008E30000080D1E00088C
:10008000E3000008E300000800000000E3000008AF
:10009000E3000008E3000008E3000008E3000008B4
:1000A000E3000008E3000008E300000865270008FB
:1000B000E300000800000000E30000080348854654
:1000C00000F0A0F8004800474D2B00086005002014
:1000D0000448804704480047FEE7FEE7FEE7FEE7E6
:1000E000FEE7FEE7091E0008BD00000830B50B461C
:1000F000014600202022012409E00D46D5409D4202
:1001000005D31D469540491B254695404019154687
:10011000521E002DF1DC30BDF0B51FB406460020A4
:1001200082B005464024019100901BE001992246CF
:100130000F46304600F020F8049A059B801A99413A
:1001400010D310461946224600F04CF8361A8F415B
:100150000197224601200021009F00F043F8381843
:100160004D4100902046641E0028DFDC019B009872
:100170002946324607B0F0BD10B5202A04DB0846F8
:10018000203AD040002110BD0B46D340D04020245F
:10019000A21A91400843194610BDD2B201E0027084
:1001A000401C491EFBD270470022F6E710B51346EB
:1001B0000A4604461946FFF7F0FF204610BD421ECE
:1001C0005378521C002BFBD10B781370491C521C26
:1001D000002BF9D17047421C0178401C0029FBD14B
:1001E000801A704710B5202A04DB0146203A91405E
:1001F000002010BD914020239C1A0346E340194380
:10020000904010BD064C0125064E05E0E36807CC82
:100210002B430C3C98471034B442F7D3FFF752FFFE
:10022000E42D0008042E000810B50B484069C007F3
:10023000C00F002803D0012000F062F80AE0064851
:10024000406902210840002803D0022000F058F83D
:1002500000E000BF10BD000000040140704770B511
:10026000044600252120005D022803D00420A0635D
:1002700001251EE0206800680E218843216808607F
:100280002068006840084000216808600120216C57
:100290008840E16B486001212120015500BF002109
:1002A0002020015500BF606B002802D02046616B02
:1002B0008847284670BD000070B5044600F03CF940
:1002C00006462546681C002802D0054800782D18EF
:1002D00000BF00F031F9801BA842FAD370BD0000C6
:1002E0001800002010B504460120034908600102EF
:1002F000024800F012F910BD0C0000200008004870
:1003000010B50446054840692040002804D0034841
:1003100044612046FFF7E6FF10BD000000040140E5
:1003200078B503460022DDE0012696400C68344093
:10033000002C7DD04D68022D02D04D68122D15D1B4
:10034000D508AE001D462035A8595507EE0E0F25DD
:10035000B5400646AE4330465607F60E0D69B54029
:100360002843D508AD001E46203670511868560047
:100370000325B5400646AE4330460D79AD07AD0FB7
:100380005600B540284318604D68012D08D04D68CF
:10039000022D05D04D68112D02D04D68122D18D1B7
:1003A000986856000325B5400646AE4330465600D1
:1003B000CD68B540284398605868012595400646A9
:1003C000AE43304610264D6835402D0995402843F0
:1003D0005860D86856000325B5400646AE433046FF
:1003E00056008D68B5402843D860012636074D6811
:1003F0003540B54275D100BF3D4DAD69012635434D
:100400003B4EB5613546AD69ED07ED0F009500BF78
:1004100000BF384D9608B600A85995072E0F0F2536
:10042000B5400646AE4330460925ED06AB4200E036
:1004300057E001D100250FE02F4DAB4201D101253E
:100440000AE02E4DAB4201D1022505E02C4DAB4216
:1004500001D1032500E005259607360FB540284356
:10046000244D9608B600A851264D28680546A54398
:100470002846012636044D683540B54202D105466E
:10048000254328461F4D286068680546A543284631
:10049000012676044D683540B54202D10546254314
:1004A0002846184D6860A8680546A54328460126D9
:1004B00036054D683540B54202D1054625432846EC
:1004C000104DA860E8680546A54328460126760534
:1004D0004D683540B54202D1054625432846094DB1
:1004E000E860521C0D68D540002D00D01CE778BD97
:1004F00000100240080001400004004800080048C5
:10050000000C004800040140024613690B40002B18
:1005100001D0012000E00020704742690A40002A13
:1005200002D00A04826100E081617047002A01D094
:10053000816100E0816270470148006870470000F7
:100540001000002003480068034909784018014959
:1005500008607047100000201800002010B5064801
:1005600000681021084304490860002000F006F8E4
:1005700000F02EF8002010BD0020024070B50446A7
:10058000104801787D20C000FFF7B0FD06463146D7
:100590000D480068FFF7AAFD054600F003FD00289E
:1005A00001D0012070BD042C07D200222146501E2C
:1005B00000F03CF80548046001E00120F2E700206B
:1005C000F0E70000180000201C00002014000020AC
:1005D00008B500BF0D488069012108430B498861B7
:1005E00008468069C007C00F009000BF00BF00BF71
:1005F0000846C069090408430449C8610846C0693F
:1006000009040840009000BF00BF08BD0010024070
:100610000146002905DBCB06DB0E01229A40024B86
:100620001A6000BF7047000000E100E070B50446AA
:100630000D4616462946204602F0C8F870BD000057
:10064000F8B5044600260025012109042068084069
:1006500088427AD100275248C0690903084000281F
:100660000DD100BF4E48C06908434D49C8610846D6
:10067000C06909040840009000BF00BF0127494835
:100680000068FF2101310840002816D14548006864
:10069000084344490860FFF74FFF064606E0FFF7AE
:1006A0004BFF801B642801D90320F8BD3D4800683A
:1006B000FF21013108400028F1D03948006A0321A8
:1006C000090208400546002D2DD060680840A84268
:1006D00029D03348006A884305463148006A012121
:1006E000090408432E4908620846006A01210904EA
:1006F00088432B49086208460562E807C00F0028B6
:1007000011D0FFF719FF064607E0FFF715FF801B22
:100710002549884201D90320C7E72148006A022100
:1007200008400028F1D01E48006A032109028843CE
:10073000616808431A490862012F05D10846C0695B
:10074000090488431649C86100BF2078C007C00F5C
:10075000002807D01248006B80088000A168084379
:100760000F490863202120680840202807D10C4841
:10077000006B10218843E16808430949086301219F
:10078000890220680840884207D10548006B402153
:1007900088432169084302490863002085E7000077
:1007A00000100240007000408813000070B504463D
:1007B0000D46002C01D1012070BD52480068C007D1
:1007C000C00FA8420ED24F4800684008400028439E
:1007D0004C49086008460068C007C00FA84201D015
:1007E0000120E9E7022120680840022814D10421F1
:1007F00020680840042807D14348406807210902BF
:1008000088434018404948603F484068F021884389
:10081000A16808433C4948602078C007C00F002801
:100820003BD06068012808D137480068012149049D
:100830000840002815D10120BEE76068022808D1D1
:1008400031480068012149060840002809D10120EB
:10085000B2E72D48006802210840002801D101209C
:10086000AAE7294840688008800061680843264953
:100870004860FFF761FE064607E0FFF75DFE801B5C
:100880002249884201D9032096E71F4840680C217D
:100890000840616889008842EFD11A480068C007A3
:1008A000C00FA8420ED917480068400840002843EE
:1008B0001449086008460068C007C00FA84201D06C
:1008C000012079E7042120680840042808D10E4857
:1008D0004068072109028843E16808430A494860E3
:1008E00000F032F808494968F02211400909084A25
:1008F000515CC840074908600020FFF73FFE002018
:100900005AE7000000200240001002408813000057
:10091000CC2D00081C000020014800687047000032
:100920001C00002000B5FFF7F7FF054949680722C2
:1009300012021140090A034A515CC84000BD000080
:1009400000100240DC2D0008F0B589B027A0014658
:100950000EC9C06805AC0EC4089028A001460EC997
:10096000C06801AC0EC404900024002500270026B6
:1009700000200090254844680C20204000282DD0FD
:10098000042802D0082828D102E02148009028E05D
:100990000F2080042040800C05A90E5C1B48C06A13
:1009A0000007000F01A90D5C012000042040012177
:1009B000090488420AD12A46002315481946FFF740
:1009C000ABFB314601F0EAFE074604E01148314630
:1009D00001F0E4FE0746009703E000BF0C480090DA
:1009E00000BF00BF009809B0F0BD0000020304057D
:1009F000060708090A0B0C0D0E0F10100102030464
:100A000005060708090A0B0C0D0E0F100010024016
:100A100000127A0000093D00FEB50446002C01D109
:100A20000120FEBD2078C007C00F002871D0FC480F
:100A300040680C21084004280BD0F9484068084061
:100A4000082812D1F648406801210904084088426C
:100A50000BD1F348006801214904084000286BD0FD
:100A60006068002868D10120DBE700BF60680128CA
:100A700007D1EB480068012109040843E8490860F0
:100A800031E0606800280ED1E548006801210904C2
:100A90008843E349086008460068012189048843C7
:100AA000DF4908601FE0606805280ED1DC48006857
:100AB000012189040843DA490860084600680121D9
:100AC00009040843D64908600DE0D54800680121B3
:100AD00009048843D2490860084600680121890456
:100AE0008843CF49086000BF6068002812D0FFF734
:100AF00023FD054606E0FFF71FFD401B642801D9D2
:100B000003208EE7C64800680121490408400028F8
:100B1000F1D011E0FFF710FD054606E0FFF70CFDF0
:100B2000401B642801D903207BE7BD4800680121F0
:100B3000490408400028F1D1022120680840022819
:100B400061D1B74840680C21084000280BD0B44858
:100B50004068084008281BD1B148406801210904B9
:100B60000840002814D1AE4800680221084000283F
:100B700004D0E068012801D0012052E7A8480068AD
:100B8000F82188432169C9000843A54908603AE073
:100B9000E068002820D0A248006801210843A0494D
:100BA0000860FFF7C9FC054606E0FFF7C5FC401BDF
:100BB000022801D9032034E799480068022108403F
:100BC0000028F2D096480068F82188432169C900BE
:100BD00008439349086016E09148006840084000C7
:100BE0008F490860FFF7A8FC054606E0FFF7A4FC64
:100BF000401B022801D9032013E78948006802211D
:100C000008400028F2D1082120680840082831D186
:100C1000E069002817D08248406A012108438049D2
:100C20004862FFF789FC054606E0FFF785FC401B9C
:100C3000022801D90320F4E67948406A02210840DD
:100C40000028F2D016E07648406A40084000744917
:100C50004862FFF771FC054606E0FFF76DFC401B9C
:100C6000022801D90320DCE66D48406A02210840D1
:100C70000028F2D1042120680840042873D1002004
:100C800001906748C0698906084000280ED100BF5E
:100C90006348C06908436249C8610846C0690904DD
:100CA0000840009000BF00BF012001905D4800682F
:100CB000FF2101310840002816D15A480068084336
:100CC00058490860FFF738FC054606E0FFF734FC9A
:100CD000401B642801D90320A3E652480068FF2185
:100CE000013108400028F1D000BFA068012806D1DA
:100CF0004B48006A01210843494908622BE0A0687B
:100D000000280CD14648006A400840004449086267
:100D10000846006A04218843414908621BE0A06834
:100D200005280CD13E48006A042108433C4908626A
:100D30000846006A01210843394908620BE0384837
:100D4000006A40084000364908620846006A0421EB
:100D500088433349086200BFA068002813D0FFF71A
:100D6000EBFB054608E02BE0FFF7E6FB401B2E49B6
:100D7000884201D9032054E62948006A022108402C
:100D80000028F1D011E0FFF7D7FB054607E0FFF799
:100D9000D3FB401B2449884201D9032041E6204867
:100DA000006A022108400028F1D10198012806D1EB
:100DB0001B48C0690121090788431949C86100BF60
:100DC000102120680840102860D1606901282DD1C9
:100DD0001348406B04210843114948630846406B9F
:100DE000012108430E494863FFF7A6FB054606E0CC
:100DF000FFF7A2FB401B022801D9032011E6084897
:100E0000406B022108400028F2D00548406BF821D1
:100E10008843A169C90008430149486336E00000DE
:100E20000010024000700040881300006069401DFF
:100E300000280FD15A48406B042188435849486321
:100E40000846406BF8218843A169C900084354490A
:100E500048631BE05248406B0421084350494863F3
:100E60000846406B400840004863FFF765FB0546B5
:100E700006E0FFF761FB401B022801D90320D0E503
:100E80004748406B022108400028F2D1206A002820
:100E90004FD0434840680C210840082864D0206A9D
:100EA000022847D13E4800680121090688433C4991
:100EB0000860FFF741FB054606E0FFF73DFB401BDE
:100EC000022801D90320ACE5354800680121490614
:100ED00008400028F1D100BF3148C06A0009000174
:100EE000E16A08432E49C862616AA06A08432C4936
:100EF00049683D221204914308432949486000BFD4
:100F00000846006801210906084325490860FFF7E3
:100F100013FB054606E0FFF70FFB401B022801D933
:100F200003207EE51E48006801214906084000288C
:100F3000F1D033E01A4800680121090688431849B6
:100F40000860FFF7F9FA054606E0FFF7F5FA401BDF
:100F5000022801D9032064E51148006801214906EF
:100F600008400028F1D119E0206A012800D158E595
:100F70000B484668C76A012000043040616A884215
:100F80000AD13907090FE06A814205D10F20800498
:100F90003040A16A884201D0012042E5002040E5AE
:100FA0000010024070B504462546681E0949884273
:100FB00001D901200CE0681E074948610321081F80
:100FC00001F004FC0020044988610720086100202A
:100FD00070BD0000FFFFFF0000E000E070477047B9
:100FE00030B502460B4600BF3C20805C012801D191
:100FF000022030BD01253C20855400BF02253D2044
:101000008554106844681068816870252046A8439C
:1010100004461868044310684460114D1068A842E3
:101020000CD00125AD071068A84207D00D4D1068FF
:10103000A84203D00C4D1068A84207D1802508466D
:10104000A8430146586801431068816001253D208E
:10105000855400BF00253C20855400BF0020C8E710
:10106000002C0140000400400040014010B504463F
:10107000002C01D1012010BD3D20005D002805D1CC
:1010800000213C200155204600F00CF802213D20B3
:101090000155211D206800F0C1FE01213D200155B0
:1010A0000020E8E738B50446012189072068884216
:1010B00015D100BF0A48C069012108430849C86129
:1010C0000846C069C007C00F009000BF00BF0022E3
:1010D00011460F20FFF7AAFA0F20FFF799FA38BD43
:1010E00000100240F8B504460D4600BF3C20005DEC
:1010F000012801D10220F8BD01213C20015500BF8B
:1011000002213D20015520688668772130468843BA
:101110000646FF210902304688430646206886605D
:101120002868502834D00CDC202851D004DC00285A
:101130004CD0102852D14AE030284AD040284DD116
:101140003AE060282ED0702807D001210903401A08
:1011500002D0401A42D10DE041E0EB686A68A9680C
:10116000206800F0C4FE2068866877200643206867
:10117000866034E0EB686A68A968206800F0B7FE12
:10118000206880680121890308432168886026E07F
:10119000EA686968206801F01BF85021206800F0B7
:1011A000B4FE1CE0EA686968206801F02AF8602152
:1011B000206800F0AAFE12E0EA686968206801F081
:1011C00007F84021206800F0A0FE08E000BF00BF43
:1011D00000BF2968206800F098FE00E000BF00BF53
:1011E00001213D20015500BF00213C20015500BFD9
:1011F000002080E7704710B504462068006902218E
:101200000840400800281CD02068C06808404008FA
:10121000002816D0481F2168086101202077206827
:1012200080698007800F002803D02046FFF7E2FF87
:1012300005E0204600F0F2F8204600F096F9002084
:1012400020772068006904210840800800281DD00C
:101250002068C06808408008002817D0C84321686B
:101260000861022020772068806903210902084074
:10127000002803D02046FFF7BDFF05E0204600F020
:10128000CDF8204600F071F9002020772068006931
:1012900008210840C00800281CD02068C068084009
:1012A000C008002816D0C8432168086104202077B0
:1012B0002068C0698007800F002803D02046FFF710
:1012C00099FF05E0204600F0A9F8204600F04DF90E
:1012D00000202077206800691021084000090028BC
:1012E0001DD02068C06808400009002817D0C843F6
:1012F00021680861082020772068C069032109025D
:101300000840002803D02046FFF774FF05E0204680
:1013100000F084F8204600F028F9002020772068AB
:101320000069C007C00F01214840484000280CD088
:101330002068C068084048404840002805D0C81EC2
:1013400021680861204600F04BF92068006980217F
:101350000840C00900280BD02068C0680840C009B8
:10136000002805D0C843216808612046FFF736FEF3
:101370002068006940210840800900280BD02068BF
:10138000C06808408009002805D0C843216808616A
:10139000204600F026F92068006920210840400915
:1013A00000280BD02068C06808404009002805D0FC
:1013B000C843216808612046FFF711FE10BD0000F8
:1013C00010B586B00446142101A8FEF7EDFE0121F8
:1013D0008907206888421CD100BF0F484069491323
:1013E00008430D4948610846406901214904084005
:1013F000009000BF00BF88100190022002900020E2
:10140000039004900220059001A90920C006FEF770
:1014100087FF06B010BD000000100240704770B595
:1014200004460D46164600BF3C20005D012801D150
:10143000022070BD01213C20015500BF02213D204A
:101440000155002E06D0042E1BD0082E33D00C2EB2
:1014500062D147E02946206800F064FD2068806979
:101460000821084321688861206880690421884335
:10147000216888612068806929690843216888613A
:101480004BE02946206800F0A5FD20688069012115
:10149000C9020843216888612068806901218902A6
:1014A00088432168886120688069296909020843A6
:1014B0002168886131E02946206800F0EBFD206852
:1014C000C069082108432168C8612068C0690421F7
:1014D00088432168C8612068C06929690843216878
:1014E000C8611AE02946206800F032FE2068C06911
:1014F0000121C90208432168C8612068C06901212F
:10150000890288432168C8612068C0692969090285
:1015100008432168C86100E000BF00BF01213D20F1
:10152000015500BF00213C20015500BF002080E78D
:1015300010B50446002C01D1012010BD3D20005DF6
:10154000002805D100213C200155204600F00CF870
:1015500002213D200155211D206800F05FFC012182
:101560003D2001550020E8E77047704770B50446FC
:101570000E4601223146206800F0A8FC144920687C
:1015800088420BD013492068884207D0124920684E
:10159000884203D011492068884201D1012000E02F
:1015A0000020002806D02068406C0121C9030843B0
:1015B000216848642068806845076D0F062D05D0B6
:1015C000206800680121084321680860002070BD80
:1015D000002C01400040014000440140004801400F
:1015E0007047704770477047FEB504462068C5696C
:1015F000206806682068876876482840019001982E
:1016000000280ED12020284000280AD02020304079
:10161000002806D0206E002802D02046216E884780
:10162000FEBD019800287DD0F807C00F002804D126
:10163000FF20213030400028F5D0E807C00F0028F7
:101640000BD0FF2001303040002806D00120216857
:101650000862E06F01210843E0670220284000286B
:101660000AD0F807C00F002806D0022021680862BF
:10167000E06F04210843E0670420284000280AD0D6
:10168000F807C00F002806D0042021680862E06F28
:1016900002210843E0670820284000280ED02020BF
:1016A0003040002803D1F807C00F002806D00820DA
:1016B00021680862E06F08210843E0670120C0024A
:1016C000284000280CD0012080063040002807D098
:1016D0000120C00221680862E06F20210843E06712
:1016E000E06F002846D020202840002809D0202084
:1016F0003040002805D0206E002802D02046216E00
:101700008847E06F009020688068402108404028AA
:1017100004D0282100980840002826D0204600F058
:1017200045FE00E027E0206880684021084040280E
:1017300017D120688068884321688860E06E00289F
:101740000BD02548E16E4863E06EFEF788FD002867
:1017500010D0E06E416B88470CE02046FFF743FF56
:1017600008E02046FFF73FFF04E02046FFF73BFF7D
:101770000020E06754E701200005284000280CD035
:10178000012080053840002807D00120000521688D
:1017900008622046FFF726FF42E780202840002805
:1017A0000AD080203040002806D0606E002802D089
:1017B0002046616E884733E740202840002807D044
:1017C00040203040002803D0204600F001FE27E7EB
:1017D00000BF25E70F0800009523000810B5044658
:1017E000002C01D1012010BDA069002800D000E02C
:1017F00000BF606F002805D10021702001552046F0
:1018000000F02CF824206067206800684008400041
:1018100021680860204600F055FE012800D1E2E76B
:10182000606A002802D0204600F004FD206840686D
:101830000921C902884321684860206880682A21FC
:101840008843216888602068006801210843216876
:101850000860204600F066FDC5E7000010B586B0C0
:101860000446142101A8FEF79FFC1E492068884207
:1018700036D100BF1C4880690121890308431A49F9
:10188000886108468069012189030840009000BFF3
:1018900000BF00BF14484069C900084312494861AD
:1018A00008464069012149040840009000BF00BF7C
:1018B00003204002019002200290002003900320A8
:1018C00004900120059001A90920C006FEF728FD1B
:1018D000002211461B20FEF7A9FE1B20FEF798FEF2
:1018E00006B010BD003801400010024010B503469C
:1018F000986F20286CD1002901D0002A01D1012045
:1019000010BD012424039868A04208D1186900285A
:1019100005D1C807C00F002801D00120F0E700BFA3
:101920007020C05C012801D10220E9E70124702069
:10193000C45400BF59655820C2525A20C2520020D8
:10194000186600BF24039868A0420AD118690028CD
:1019500003D1204C5C20C45214E0FF245C20C4520C
:1019600010E0986800280AD11869002803D1FF24E4
:101970005C20C45206E07F245C20C45202E00024B4
:101980005C20C45200BF0020D867222098671868E6
:101990008068012420431C68A06001242403986807
:1019A000A04205D11869002802D10B48186601E051
:1019B0000A48186600BF00247020C45400BF18688D
:1019C0000068FF24213420431C682060002097E732
:1019D000022095E7FF010000F12300085B240008C6
:1019E00010B504461E492068884200D010BD1D482D
:1019F0000068002803D180211B48FEF7D5FB194859
:101A00000068802802DB002016490860012217497F
:101A10002046FFF76BFF15480078202810D11348A7
:101A20000178104802680068401C0E4B18600E4890
:101A3000815401200E4908600020194608600CE01E
:101A40000A480178074802680068401C054B186086
:101A50000548815401200649086000BFC6E7000020
:101A60000038014004000020E000002000000020B9
:101A700008000020FFB583B004460D461746606F8E
:101A8000202875D1002D01D0002F02D1012007B0F0
:101A9000F0BD01210903A068884208D1206900280F
:101AA00005D1E807C00F002801D00120EFE700BFF3
:101AB0007020005D012801D10220E8E7012170209B
:101AC000015500BF0020E06721206067FEF734FD6C
:101AD0000190502007535220075301210903A068A9
:101AE000884205D12069002802D10026029502E033
:101AF0002E460020029021E00698009000228021CE
:101B00002046019B00F0D0FD002801D00320BEE755
:101B1000002E09D102980088C005C00D21680885F3
:101B20000298801C029003E0307821680885761CBA
:101B30005220005B401E81B2522001535220005BB4
:101B40000028D9D106980090002240212046019B10
:101B500000F0AAFD002801D0032098E7202060674C
:101B600000BF00217020015500BF00208FE7FFE774
:101B700002208CE7704700BFFEE7000000B587B089
:101B8000142102A8FEF710FB00BF3B484069012169
:101B9000490408433849486108464069012149041D
:101BA0000840019000BF00BF00BF334840694900B2
:101BB00008433149486108464069012189040840C9
:101BC000019000BF00BF00BF2B4840694900084397
:101BD00029494861084640690121C904084001902B
:101BE00000BF00BF0122FE210920C006FEF79EFCB7
:101BF000012291022148FEF799FC002203210902EB
:101C00001F48FEF793FC012002901E48039000201D
:101C1000049002A90920C006FEF782FBFE20029074
:101C20000120039004900020059002A90920C0061D
:101C3000FEF776FB012080020290012003900490C1
:101C40000020059002A90D48FEF76AFB0320000260
:101C500002900120039000200490059002A90848FA
:101C6000FEF75EFB002211460520FEF7DFFC052093
:101C7000FEF7CEFC07B000BD001002400004004893
:101C8000000800480000311000B58DB00020099018
:101C90000A900B900C90079008901C216846FEF764
:101CA00083FA01208007224908600F2080014860E4
:101CB00000211F4881607D21C900C16000210161B0
:101CC0008161FFF7D3F9002801D0FEF7C7FA0120A0
:101CD0000003099009A91648FFF704FA002801D06B
:101CE000FEF7BCFA1248FFF723FC002801D0FEF7EC
:101CF000B5FA00200790089007A90D48FFF770F982
:101D0000002801D0FEF7AAFA602000900020019080
:101D100002900490002269460548FFF780FB0028E6
:101D200001D0FEF79BFA0248FFF74AFB0DB000BD59
:101D30002000002010B50E480E490860E120400246
:101D4000486000210B488160C16001610C21416144
:101D500000218161C1610162002006494862084694
:101D6000FFF73CFD002801D0FEF778FA10BD000017
:101D7000003801406000002070477047704710B580
:101D8000FEF7E0FB10BD00B595B0302109A8FEF7C5
:101D90000BFA0020059006900790089014216846E1
:101DA000FEF702FA0220099001200C9010200D90FD
:101DB00002201190002112910521C90413910021E4
:101DC000149109A8FEF728FE002801D0FEF746FA74
:101DD000072005900220069000200790089001211E
:101DE00005A8FEF7E3FC002801D0FEF737FA012032
:101DF0000090002002906846FEF722FC002801D0E7
:101E0000FEF72CFA15B000BD7047000010B502486F
:101E1000FFF7F1F910BD00002000002010B50268A6
:101E2000244B984206D001239B07984202D0224BB4
:101E3000984205D170241346A3431A464B681A43AF
:101E40001C4B984212D001239B0798420ED01A4B8C
:101E500098420BD0194B984208D0194B984205D0A4
:101E6000184B984202D0184B984206D10324240202
:101E70001346A3431A46CB681A4380241346A34350
:101E80004C6923431A4602608B68C3620B68836205
:101E9000084B984208D00A4B984205D0094B98420B
:101EA00002D0094B984201D10B69036301234361BE
:101EB00010BD0000002C0140000400400020004044
:101EC00000400140004401400048014070B5CD068B
:101ED000ED0E0124AC402346046A9C430462046A6C
:101EE000CE06F60E1546B5402C43046270BD70B5A3
:101EF0000C468168FF2636020D46B54329461D0271
:101F0000154325432943816070BD10B50A46816899
:101F100070240B46A34319460723134319438160DA
:101F200010BD000070B5056A6D086D000562026A9B
:101F30004368846970262546B5432C46A408A4004E
:101F40000D682C4302261546B5432A468D682A4360
:101F50001C4DA84200D10BE01B4DA84200D107E068
:101F60001A4DA84200D103E0194DA8420AD100BF82
:101F700008261546B5432A46CD682A430426154649
:101F8000B5432A460F4DA84208D00F4DA84205D0B0
:101F90000E4DA84202D00E4DA8420CD1FF260136AC
:101FA0001D46B5432B4676001D46B5432B464D696D
:101FB0002B438D692B43436084614D684563026206
:101FC00070BD0000002C0140004001400044014071
:101FD0000048014070B5056A1026B5430562026AE3
:101FE00043688469072636032546B5432C460326F5
:101FF00036022546B5432C460D682D022C4320267B
:102000001546B5432A468D682D012A431D4DA84229
:1020100000D10BE01C4DA84200D100BF1B4DA842CF
:1020200000D100BF1A4DA8420BD10AE08026154608
:10203000B5432A46CD682D012A4340261546B543AF
:102040002A46104DA84208D00F4DA84205D00F4D8A
:10205000A84202D00E4DA8420ED10126B6021D465E
:10206000B5432B4676001D46B5432B464D69AD0062
:102070002B438D69AD002B43436084614D688563BC
:10208000026270BD002C014000400140004401404C
:102090000048014070B5056AFF260136B543056268
:1020A000026A4368C46970262546B5432C46A408D5
:1020B000A4000D682C43012676021546B5432A4636
:1020C0008D682D022A431E4DA84200D10BE01D4D04
:1020D000A84200D100BF1C4DA84200D100BF1B4D3B
:1020E000A8420CD10BE00126F6021546B5432A465C
:1020F000CD682D022A4376101546B5432A46104D69
:10210000A84208D00F4DA84205D00F4DA84202D0DA
:102110000E4DA8420ED1012636031D46B5432B466F
:1021200076001D46B5432B464D692D012B438D6925
:102130002D012B434360C4614D68C563026270BDCD
:10214000002C014000400140004401400048014093
:1021500070B5056A01263603B5430562036A446813
:10216000C269072636031546B5432A4603263602BA
:102170001546B5432A460D682D022A4301267603EB
:102180001D46B5432B468D682D032B430C4DA842AD
:1021900008D00C4DA84205D00B4DA84202D00B4DE3
:1021A000A84207D10126B6032546B5432C464D6902
:1021B000AD012C434460C2614D680564036270BD8B
:1021C000002C014000400140004401400048014013
:1021D00070B50B461446026A056A6D086D0005620B
:1021E0008169F0260D46B5432946250129430A2673
:1021F0001546B5432A4615461D432A4681610262AB
:1022000070BD70B50B461446056A1026B5430562CD
:102210008169026A0F2636030D46B5432946250318
:102220002943A0261546B5432A461D012A4381614C
:10223000026270BD818CC907C90F002908D00168EE
:102240004968012252049143826A11430268516035
:102250000222416A1140022907D101684968D2036C
:102260009143C26A1143026851600422416A1140DD
:10227000042907D10168496812049143026B114394
:10228000026851600822416A1140082907D101689B
:10229000496812039143426B114302685160102256
:1022A000416A1140102907D10168896812029143DF
:1022B000826B1143026891602022416A11402029FB
:1022C00007D10168896812029143C26B1143026809
:1022D00091604022416A1140402915D10168496846
:1022E00092039143026C114302685160012212056E
:1022F000016C914208D1016849680322520591435B
:10230000426C1143026851608022416A1140802969
:1023100007D10168496812039143826C1143026836
:102320005160704738B504460020E067FEF704F9B5
:102330000546206800680821084008280BD1144889
:102340002B46002289040090204600F0ADF90028B9
:1023500001D0032038BD206800680421084004280B
:102360000BD10B482B46002209050090204600F0B7
:102370009BF9002801D00320ECE720206067A067CC
:1023800000BF00217020015500BF0020E2E70000DF
:10239000FFFFFF0170B505466C6A00215A2001530A
:1023A000522001532046FFF71EF970BD01680968ED
:1023B000FF2221329143026811600168896849084F
:1023C0004900026891602021816700210166704701
:1023D00010B50446206800684021884321680860E1
:1023E00020206067002060662046FFF7C3FB10BD19
:1023F000F8B504465C20075BA06F222826D1206830
:10240000868C656D304638402880606D801C606524
:102410005A20005B401E81B25A200153005B002805
:102420001AD120680068FF212131884321680860A3
:102430002068806840084000216888602020A067EC
:10244000002020662046FFF7CBFA05E0206880696F
:102450000821084321688861F8BD70B504465C20F6
:10246000065BA06F222826D12068858CF0B2284018
:10247000616D0870606D401C60655A20005B401EF5
:1024800081B25A200153005B00281AD120680068ED
:10249000FF21213188432168086020688068400856
:1024A0004000216888602020A06700202066204628
:1024B000FFF796FA05E02068806908210843216843
:1024C000886170BDFEB50446002700200090216998
:1024D000A068084361690843E169084302902068E5
:1024E00000686A490840029908432168086020682A
:1024F0004068032109038843E16808432168486074
:10250000A0690290206A02990843029020688068BE
:102510000B2109028843029908432168886000BFA3
:102520005B492068884217D15A48006B8007800FAA
:10253000002806D0012808D0022808D0032808D196
:1025400001E0002507E0022505E0042503E0082559
:1025500001E0102500BF06E04F492068884201D104
:10256000002500E0102500BF0121C903E069884271
:102570004AD1002D06D0022D10D0042D16D0082DE2
:1025800029D11FE0FEF7CEF90646720063685B08AA
:10259000D0186168FDF7AAFD87B21FE061684A089C
:1025A0003E4BD018FDF7A2FD87B217E0FEF7CCF93D
:1025B0000646720063685B08D0186168FDF796FDF7
:1025C00087B20BE061684A0801231B04D018FDF7AD
:1025D0008DFD87B202E00120009000BF00BF102FE8
:1025E0000FD32F4887420CD82D480F383840019020
:1025F0003807400F01990843019001982168C8608D
:102600003EE0012000903BE0002D06D0022D0ED0D0
:10261000042D14D0082D25D11BE0FEF783F90646C2
:1026200061684A089019FDF761FD87B21DE0616895
:102630004A081C4BD018FDF759FD87B215E0FEF78C
:1026400083F9064661684A089019FDF74FFD87B285
:102650000BE061684A080123DB03D018FDF746FD53
:1026600087B202E00120009000BF00BF102F05D309
:102670000B48874202D82068C76001E00120009023
:102680000020206660660098FEBD0000F369FFFF31
:102690000038014000100240004400400024F400D3
:1026A000FFFF000000127A00FFB581B004460D461E
:1026B00017460A9E4AE0701C002847D0FDF73CFFF1
:1026C0000499401AB04201D8002E17D12068006842
:1026D000FF21A13188432168086020688068400894
:1026E00040002168886020206067A06700BF00214B
:1026F0007020015500BF032005B0F0BD20680068C0
:1027000004210840002821D02068C06949020840FF
:10271000C00A00281AD008462168086220680068AC
:10272000FF21A13188432168086020688068400843
:1027300040002168886020206067A067E06700BFD4
:1027400000217020015500BF0320D5E72068C06933
:102750002840A84201D1012000E00020B842AAD0C0
:102760000020C9E710B50248FEF73EFF10BD00008B
:10277000600000200FB410B504A9074B02AA03980B
:1027800000F070F8044602A9002000F0D9F92046B4
:1027900010BC08BC04B01847412B0008F8B582B241
:1027A0008BB2040C0D0C10465843002126465E43A4
:1027B000370C36048019794116466E43370C3604BF
:1027C0008019794126466E438919F8BD10B5002855
:1027D00019DB1A4A03231B02D21883089B00D25824
:1027E0008307DC0EFF23A3409A438B071B0E84074D
:1027F000E40EA3401A43114B032424021B1984083E
:10280000A4001A5118E00E4A03071B0F083B9B084F
:102810009B00D2588307DC0EFF23A3409A438B070B
:102820001B0E8407E40EA3401A43054B0407240F34
:10283000083CA408A4001A5110BD000000E100E00B
:102840001CED00E002E008C8121F08C1002AFAD1FE
:1028500070477047002001E001C1121F002AFBD120
:1028600070470000FFB58FB00F460446002606E013
:1028700025280AD0129A11999047641C761C20785A
:102880000028F5D1304613B0F0BD00250121A14A42
:10289000009500E00543641C23780846203B9840DF
:1028A0001042F7D120782E2815D1042005436078F6
:1028B000641C2A280AD101CF641C00900BE0009907
:1028C0000A22514330394018641C00902078014698
:1028D00030390929F3D920786C280ED004DC4C2833
:1028E00013D06A2812D104E074280ED07A280DD1B2
:1028F0000BE001204005054307E00121090562784E
:102900000D43824201D16D18641C641C20788646F8
:1029100069284AD008DC0028B4D058286DD0632834
:1029200010D0642808D140E070286BD0732812D0F2
:10293000752860D0782860D0129A70461199904717
:10294000761CE5E03878694608720020487202A8D3
:102950000190012003E0386801900020C0433F1D32
:1029600069070CD5002500E06D1C00998D420FDA37
:102970008542F9DB0199495D0029F5D108E0002580
:1029800000E06D1C8542FCDB0199495D0029F8D10E
:10299000761907E0019801990078491C0191129A73
:1029A000119990476D1EF5D2B2E00A2002900021E5
:1029B0006802400F039102280CD001CFC117844652
:1029C00000290DDA624608465242002181419446B0
:1029D0002D2008E0FF1DFF08FF0003CF8446EFE72E
:1029E000280504D52B206A46107401203CE0E80736
:1029F0003AD02020F7E70A2000E0102000210391C0
:102A0000029007E0102002900021042005430820D6
:102A1000039100906802400F022810D001CF0021DE
:102A2000844600200D9028071FD5704670280CD0D2
:102A3000029A1020039B42401A430CD015E0FF1D60
:102A4000FF08FF0003CF8446EBE740206A4610747E
:102A500001200D900CE06046084306D030206A4605
:102A600010747046507402200D907046582804D09F
:102A700029A001900DA80E900DE02CA0F9E760466A
:102A8000039B029AFDF748FB019B84469B5C0E9AD0
:102A9000521E0E92137060460843F0D10E9805A99D
:102AA000081A20300190680701D5009801E0012044
:102AB00000900199884203DD01460198081A00E060
:102AC00000200025009006E004A8129A405D1199AC
:102AD00090476D1C761C0D988542F5DB04E0129A38
:102AE000302011999047761C0099481E00900029CB
:102AF000F5DC08E00E980E990078491C0E91129AA8
:102B000011999047761C0199481E01900029F1DC2B
:102B1000641CB4E6092801003031323334353637CD
:102B20003839616263646566000000003031323319
:102B300034353637383941424344454600000000B9
:102B40000A68531C0B6010707047000088B0FDF7D6
:102B500005FDFFF718F9FFF711F8FFF7EBF8FFF79E
:102B600093F8012258495948FEF7C0FE0021584801
:102B7000FEF7FCFC574E0124A5E0012400F0D4F838
:102B80000446002C1FD101210920C006FDF7BCFC22
:102B900005462A46012149024F48FDF7C7FC7D2022
:102BA0004B49096848634B4E00E000BF3046761E33
:102BB0000028FAD119204649096848637D20C000E1
:102BC000FDF77AFB0EE0012211024348FDF7AEFC4F
:102BD000FF20F530FDF770FB0022FF2101313E4858
:102BE000FDF7A4FC00203D490860002C56D0234688
:102BF0003BA23DA16846FFF7BDFDE007C00F0028DE
:102C000003D03BA16846FDF7DAFA022020400028F5
:102C100003D038A16846FDF7D2FA042020400028EE
:102C200003D035A16846FDF7CAFA082020400028E5
:102C300003D032A16846FDF7C2FA102020400028D8
:102C400003D02FA16846FDF7BAFA202020400028C3
:102C500003D02CA16846FDF7B2FA4020204000289E
:102C600003D029A16846FDF7AAFA80202040002859
:102C700003D026A16846FDF7A2FA25A16846FDF714
:102C80009EFA6846FDF7A7FA0546642068430346A6
:102C9000AAB269460D48FEF7EDFE11E01EA221A181
:102CA0006846FFF767FD6846FDF795FA054664201C
:102CB00068430346AAB269460448FEF7DBFE00BF3C
:102CC0002820FDF7F9FA58E70000002060000020F6
:102CD0002000002040420F00000800480C000020A7
:102CE0005B544553545D3A002573307825780A00CB
:102CF0005B315D005B325D005B335D005B345D002A
:102D00005B355D005B365D005B375D005B385D0009
:102D10004641494C0A0000005B5445535420504141
:102D200053535D0025730A0070B50025002402216D
:102D30000920C006FDF7E8FB0546012D00D104433C
:102D400004210920C006FDF7DFFB0546012D01D156
:102D50000220044308210920C006FDF7D5FB0546E3
:102D6000012D01D10420044310210920C006FDF7E4
:102D7000CBFB0546012D01D1082004432021092069
:102D8000C006FDF7C1FB0546012D01D1102004430B
:102D900040210920C006FDF7B7FB05468021092028
:102DA000C006FDF7B1FB0546012D01D140200443CB
:102DB000012189020448FDF7A7FB0546012D01D139
:102DC00080200443204670BD00040048000000003D
:102DD00000000000010203040607080900000000CB
:102DE00001020304042E000800000020200000005F
:102DF00044280008242E0008200000204005000080
:102E0000542800080000000000000000000000003E
:102E100000000000000000000400000001000000AD
:042E200000127A0022
:04000005080000BD32
:00000001FF
